:020000040000FA
:0400000080312628FD
:100008007E1480318B1E09280A2812280B1D0D2802
:100018000E28122884313424803124280B1F1528F7
:10002800162824282100131E1A281B2824282000FB
:10003800131E1F2820282428843184248031242852
:100048007E10090080312828F001F101F201F30146
:10005800F401F50120308400003085002A30853114
:10006800062580317E10200082317F2A7208C23E28
:10007800840082300318013E850000082000CD006E
:10008800CE012A084D0603194A284B284C28412935
:10009800C8302006031951285228532841298B308B
:1000A80021060319582859285A284129C501F21E42
:1000B8005E285F2863288531472580316628853189
:1000C8003E25803120004E10F21E6B284E14200071
:1000D800CE10721E7028CE1420004E11F21D752805
:1000E8004E152000CE11721D7A28CE15FD288531B7
:1000F8001E25803185314A2580318531442580315E
:10010800302985311E25803185314A258031853158
:100118003625803130293D08031D932894289728D7
:1001280085311E25803185314A25803120003E03E6
:10013800031D9F28A028A428833134238031302927
:100148008431D324803130293D08031DAC28AD28E3
:10015800B02885311E25803185314A25803120001F
:100168003E03031DB828B928A428A02885311225E4
:10017800803185314A2580318531442580313029C7
:1001880085311225803185314A2580318B283D08FB
:10019800031DCF28D028D32885311E2580318531ED
:1001A8004A25803120003E03031DDB28DC28A428D3
:1001B800A0283D08031DE128E228E52885311E25F1
:1001C800803185314A25803120003E03031DED280A
:1001D800EE28A428A02885311225803185314125B3
:1001E8008031C02885311225803185314125803103
:1001F8008B2820004E08003A03197B28013A03197E
:100208008528033A03198F28013A0319A828073AC1
:100218000319BA28013A0319C428033A0319BA285A
:10022800013A0319C4280F3A03197B28013A031924
:100238008528033A0319CB28013A0319DD28073A20
:100248000319EF28013A0319F628033A0319EF288E
:10025800013A0319F62830292000CF014F08203E23
:100268008600870181010130CC004C08CF070B3094
:100278004F02031C40294129322908000430260076
:100288001306031D48294929DF297708F100760854
:10029800F0000530930020003903031D5429552927
:1002A8000D2AB9012C087102031D5C292B08700264
:1002B800031C5F29602967292B087002AD002C08F0
:1002C800713BAE0073292C08F9002B08F800F809D7
:1002D800F90970087807AD007108793DAE0030085B
:1002E800F9002F08F800F936F80CF936F80CF93649
:1002F800F80C7808BB002E08F9002D08F800F9362C
:10030800F80CF936F80CF936F80C7808BC003C08FB
:100318003B0203189029912995293B083C02BA0011
:1003280098293C083B02BA003808031D9C299D29DE
:10033800AC2922000E16103020003A020318A52915
:10034800A6290D2AB801B80AB70122000E120D2AF3
:1003580010303A020318B129B229C22922000E121C
:100368000130F8002000370ABA29F835890BB92975
:100378007808FF3AF9007908F405D02922000E160A
:100388000130F8002000370ACA29F835890BC92935
:100398007808F9007908F4040130F8007808B707FC
:1003A80008303702031CD929DA29DE29B8010130BF
:1003B800C9000D2A0D2A05301306031DE429E52975
:1003C8000D2A77082000AC007608AB000430260020
:1003D8009300710820002C02031DF42970082B02D9
:1003E800031CF729F829FF2970082B02AF007108B0
:1003F8002C3BB0000B2A7108F9007008F800F809C6
:10040800F9092B087807AF002C08793DB000B9012D
:10041800B90A080020004903031D132A142A7E2A5A
:10042800C9015B2AC8307406031D1B2A1C2A212A0D
:10043800C701C70A7408A0007E2AC7017E2A8B302C
:100448007406031D282A292A212A7408A1000230CB
:10045800C7007E2A7408A2000330C7007E2A7408E9
:10046800A3000430C7007E2A7408A4000530C70022
:100478007E2A7408A5000630C7007E2A7408A600E4
:100488000730C7007E2A7408A7000830C7007E2AF4
:100498007408A8000930C7007E2A7408A9000A3029
:1004A800C7007E2A7408AA00C801C80A212A47087A
:1004B800003A0319162A013A0319232A033A0319A1
:1004C8002E2A013A0319332A073A0319382A013A1E
:1004D80003193D2A033A0319422A013A0319472A04
:1004E8000F3A03194C2A013A0319512A033A0319FE
:1004F800562A212A08008331C72382316030200020
:10050800CA000430CB0085310C2582318B170B17BC
:10051800003020008D1A0130BE0000308D190130E6
:10052800BF0085316825823182310E2282318331C4
:100538008923823183310223823120004208031D3E
:10054800A62AA72AB22A4303031DAB2AAC2AAE2A3D
:10055800C301982A80313A208231982AC201853114
:100568004725823185314A258231853112258231EC
:10057800853136258231982A803126284C349F349B
:10058800ED343E346634B534C734143459348A34BF
:10059800F8342B347334A034D23401348E345D34BF
:1005A8002F34FC34A43477340534D6349B3448349F
:1005B8003A34E934B13462341034C3342D34FE345F
:1005C8008C345F340734D434A63475343834EB347F
:1005D80099344A341234C134B3346034EF343C347F
:1005E8004E349D34C53416346434B734FA3429345F
:1005F8005B348834D03403347134A234063020009C
:100608002206031D082B092B292BD5302A06031D8A
:100618000E2B0F2B292BC301C30A853147258331A4
:1006280085311E25833185314A25833120004008D4
:10063800031D1F2B202B252B8B1383316423833120
:100648008B172000C501C401332BC301333044028A
:10065800031C2F2B302B332B3230C400C001080071
:1006680020003F08031D392B3A2B532B721C3D2BBE
:100678003E2B442B250098012000C101C10A632BA1
:100688004108031D482B492B4D2BC93025009800E4
:10069800632B8B1384311B2483318B17632BF21C40
:1006A800562B572B582B3E2B4108031D5C2B5D2BDB
:1006B8005E2B492B8B1384311B2483318B17080045
:1006C8002000CC014C080C3E250098000230200088
:1006D800CB00AA30CA00F630890B702BCA0B702BDE
:1006E800CB0B702B000001302000CA004A08CC0751
:1006F80031304C02031C812B822B662B3C302500A9
:1007080098002000C001C00A080020002208F30059
:100718002308C600F201F212731D932BF21672120F
:10072800F31D972B7216F211731E9B2BF215721183
:10073800F31E9F2B7215F2102000C61EA42BF21474
:1007480072102000461FA92B721408002200900185
:100758008C018D0110308E00083021009000FE3091
:100768008C007F308D00F9308E00133023008D000F
:100778003F308C00240090012C308D00210095130F
:1007880022009D0108008331AA2383318431C724C4
:1007980083318531322583318431A02483318431FA
:1007A800AD2483318431FE2483318431EB248331B9
:1007B80084319324833184314C2483310800200010
:1007C8004B08CD004A08CC00CD36CC0CCD36CC0C2D
:1007D8004C082500980020004A080339CC00043052
:1007E800CC35890BF42B25001A08CF3920004C048E
:1007F80025009A00080020004B08CD004A08CC00CC
:10080800CD36CC0CCD36CC0C4C0825009100200000
:100818004A080339CC000430CC35890B102C25004C
:100828001308CF3920004C0425009300080020004D
:10083800CB01911C202C212C1D2C91100130CA00B9
:100848004A082500980701302000CA004A08CB074B
:10085800C9304B02031C312C322C1D2CC10108005D
:100868000B117508200095000130B1070030B23D2A
:10087800003032020A3003193102031C442C452C83
:100888004B2C8431BA2484312000B101B201080014
:1008980021001508C039143895000630200095004D
:1008A8000630F5000B118B166A30CA000530CB00F4
:1008B80085310C25843108000130F60076082000C7
:1008C800C5070130F6007608C407C8304502031C86
:1008D8006E2C6F2C722CC201C20AC50108002000C0
:1008E800181D772C782C7F2C18104B0897004A0875
:1008F80096001814832C4B0897004A0896000800A5
:100908002000131226001108FA001208FB007B08C9
:10091800F7007A08F600813142218431080010304E
:10092800200099009701960111101708B6001608C3
:10093800B5000130980008000C3025009A009C0191
:1009480080309B0001309D0099019801F3309E058D
:1009580008000C3025009300950180309400013088
:10096800960092019101FC309E0508002000330892
:1009780034040319C02CC12CC62C34088A0033084F
:100988000A00843108007030210099009801220083
:10099800960121001A1FD12CD22CCD2C0800200042
:1009A8003D08031DD82CD92CDE2CBD01BD0A6430AE
:1009B8002500910008000030200091180130CA007D
:1009C8004A080319E82CE92CEA2C91100800053094
:1009D80026009300920191012000131221001316A2
:1009E800080020003608CB003508CA00843173247B
:1009F80084310800C83020009B009A01911007300C
:100A08009C000800640080010131890B072D003427
:100A180020004B08B4004A08B30008002000BD01BC
:100A2800C93025009100080020001608CB001708DF
:100A3800CA0008002000BD0125009101080020001F
:100A4800CA004A089A0008002000CA004A089B0009
:100A580008002000CA004A08950008001630210046
:100A6800970008000E30250098000800750820003F
:100A78009500080022008D13080022000C100800C1
:100A880025009801080022008D17080022000C1488
:100A9800080020001C11080020001C150800200078
:100AA8001A08080020001810080020001814080070
:100AB80020009915080020001108080020001908D6
:0E0AC8000800200015080800080008000800BB
:020000040001F9
:04000E00C43FFF1FCD
:00000001FF
